:100000000C946E000C9496000C9496000C94960040
:100010000C9496000C9496000C9496000C94960008
:100020000C9496000C9496000C9496000C949600F8
:100030000C9496000C9496000C9496000C949600E8
:100040000C943E0B0C9496000C94130E0C94450EDD
:100050000C9496000C9496000C9496000C949600C8
:100060000C9496000C9496006B057205790580053A
:1000700087059E058E059E0595050E061206160639
:100080001A061E06220626060000000800020100CD
:100090000003040700000000000000000102040843
:1000A00010204080010204081020010204081020E2
:1000B000040404040404040402020202020203030E
:1000C0000303030300000000250028002B000000AC
:1000D0000000240027002A001D04750E11241FBEF5
:1000E000CFEFD8E0DEBFCDBF11E0A0E0B1E0E0E4AB
:1000F000FDE202C005900D92A43AB107D9F723E0C2
:10010000A4EAB1E001C01D92AC33B207E1F710E000
:10011000CCEDD0E004C02297FE010E942D14C83D12
:10012000D107C9F70E942D110C949E160C94000063
:1001300026E040E855E260E070E08BE992E00E9442
:10014000B10D61E083E00E945F0C61E084E00E94F9
:100150005F0C61E085E00E945F0C61E086E00E9438
:100160005F0C61E087E00E945F0C61E088E00E9424
:100170005F0C61E089E00E945F0C61E08AE00E9410
:100180005F0C61E08BE00E945F0C60E085E00E9404
:10019000980C60E088E00E94980C60E08BE00E9480
:1001A000980C40E050E06AEF74E48EE492E00E9424
:1001B000B50A40E050E06AEF74E48AE092E00E9401
:1001C000B50A40E050E06AEF74E486EC91E00C94EC
:1001D000B50A1092B7011092B6011092B9011092AF
:1001E000B8011092BD011092BC011092BF01109293
:1001F000BE011092C3011092C2011092C50110926B
:10020000C4010895CF93C82F682F85E00E94980CF1
:100210006C2F88E00E94980C6C2F8BE0CF910C948F
:10022000980C2F923F924F925F926F927F928F9293
:100230009F92AF92BF92CF92DF92EF92FF920F9375
:100240001F93CF93DF93CDB7DEB766970FB6F894C1
:10025000DEBF0FBECDBF80E00E9402011092A4015C
:100260001092A5011092A6011092A7018091B601EB
:100270009091B701892B61F48EE492E00E9401080D
:100280002091B8013091B9011B01221A330A0AC02A
:100290008EE492E00E9401082090B8013090B901EC
:1002A000260E371E8091BC019091BD01892B61F40F
:1002B0008AE092E00E9401082091BE013091BF01C6
:1002C0002B01421A530A0AC08AE092E00E940108F8
:1002D0004090BE015090BF01460E571E8091C20152
:1002E0009091C301892B61F486EC91E00E94010892
:1002F0002091C4013091C5013B01621A730A0AC002
:1003000086EC91E00E9401086090C4017090C501E4
:10031000660E771E4091B8015091B9012091BE013F
:100320003091BF017091C4016091C501872F962F54
:10033000421753072CF08417950734F4CA0104C000
:10034000821793070CF4C90108EB11E09E012F5F9F
:100350003F4F3E872D879C01442737FD4095542F02
:100360002B8B3C8B4D8B5E8BF801608171814AE059
:1003700050E08BE992E00E94D80FF8016081718112
:10038000882777FD8095982F0E9441124B015C01D0
:100390006B897C898D899E890E9441126B017C0149
:1003A00020E030E04AE753E4C501B4010E94F512B1
:1003B000A70196010E94A6110E9458136F87788B9F
:1003C000898B9A8B20E030E04AE754E4C501B40100
:1003D0000E94F512A70196010E94A611ED85FE85E7
:1003E0006193719381939193FE87ED876F857889EF
:1003F00089899A890E940E124AE050E08BE992E0C6
:100400000E94D80F0A5F1F4FF1E00A3C1F0709F056
:10041000ABCF49815A816B817C818EE492E00E944E
:100420001A0B4D815E816F8178858AE092E00E948F
:100430001A0B49855A856B857C8586EC91E00E9474
:100440001A0BA101662757FD6095762F8EE492E086
:100450000E948F09A201662757FD6095762F8AE0DA
:1004600092E00E948F09A301662757FD6095762FC1
:1004700086EC91E00E948F098091A4019091A501E2
:10048000A091A601B091A7010196A11DB11D809375
:10049000A4019093A501A093A601B093A7018EE4B7
:1004A00092E00E941C0A8AE092E00E941C0A86ECFC
:1004B00091E00E941C0A8EE492E00E94EF07672BF5
:1004C000682B692BC9F68AE092E00E94EF07672B40
:1004D000682B692B89F686EC91E00E94EF07672B69
:1004E000682B692B49F60E94E90081E090E066964E
:1004F0000FB6F894DEBF0FBECDBFDF91CF911F9135
:100500000F91FF90EF90DF90CF90BF90AF909F90B2
:100510008F907F906F905F904F903F902F900895B5
:10052000CF92DF92EF92FF926B017C01AB01BC0195
:100530008EE492E00E940708B701A6018AE092E0EB
:100540000E940708B701A60186EC91E0FF90EF90AA
:10055000DF90CF900C940708EF92FF920F931F93B8
:10056000CF93DF9300D000D000D0CDB7DEB77B01B2
:10057000009729F0019731F40DEA11E005C00FED65
:1005800011E002C005EA11E0B701601B710B77FFB3
:1005900003C0719561957109882777FD8095982F23
:1005A0000E94411220E030E046E953E40E94F51237
:1005B00020E030E040E85AE30E94F51226E43AEDEC
:1005C00041EB5EE30E94A6110E94581321E030E047
:1005D0000E151F050CF420E0122F2B833C839B018A
:1005E000AC010E943E110E940E127E836D83298110
:1005F0003A81412F5C817E8180E090E026960FB6A3
:10060000F894DEBF0FBECDBFDF91CF911F910F9148
:10061000FF90EF900895CF92DF92EF92FF920F93A9
:100620001F93CF93DF93CDB7DEB762970FB6F894E1
:10063000DEBF0FBECDBF8EE00E94190C9E878D8756
:100640008FE00E94190C988B8F8780E10E94190C13
:100650009A8B898B67E071E0CE0107960E945E104D
:100660008E01035F1F4F7E0183E1E80EF11CF8014C
:10067000C190D1908F01BE01695F7F4FCE0101967D
:100680000E948B10B601CE0101960E941E116DE0F2
:1006900071E00E940411BC01CE0107960E94741003
:1006A000CE0101960E94F00F0E151F0501F76FE0B5
:1006B00071E0CE0101960E945E10BE01695F7F4F1E
:1006C000CE0101960E94F11061E171E00E940411D7
:1006D000BC01CE0107960E947410CE0101960E94C3
:1006E000F00FBE01695F7F4F8BE992E00E94110F0E
:1006F000CE0107960E94F00F62960FB6F894DEBF07
:100700000FBECDBFDF91CF911F910F91FF90EF9062
:10071000DF90CF900895BF92CF92DF92EF92FF9239
:100720000F931F93CF93DF9300D000D000D0CDB7AD
:10073000DEB786E0B82E8EE00E94190C9A8389837A
:100740008FE00E94190C9C838B8380E10E94190C1E
:100750009E838D83CE0101966C01E12CF12CF60174
:10076000619171916F01BE9C8001BF9C100D11249D
:100770000C541E4FC7010E94AC02F8012083318344
:100780004283538364837583FFEFEF1AFF0A83E08C
:10079000E816F10421F70E940B030E9411010E9448
:1007A0000B038EE00E94190C9A8389838FE00E94CC
:1007B000190C9C838B8380E10E94190C9E838D838E
:1007C000FE0131967F0100E010E041E02FED31E0C5
:1007D000F701819191917F01821B930B97FF03C0D9
:1007E00091958195910904973CF063E171E08BE963
:1007F00092E00E94230F40E00F5F1F4F033011056E
:1008000049F00130110519F025EA31E0E1CF2DEA78
:1008100031E0DECF442309F48ECF26960FB6F8944C
:10082000DEBF0FBECDBFDF91CF911F910F91FF9023
:10083000EF90DF90CF90BF900895CF92EF920F93FB
:10084000CC24C39495E0E92E04E024E043E061E089
:100850008EE492E00E94490A27E046E061E08AE0E7
:1008600092E00E94490A2AE049E061E086EC91E0CA
:100870000E94490A0F91EF90CF9008958BE992E082
:100880000E94CE0C0C9709F090C08BE992E00E9478
:10089000E70C8093B3016AE070E080E090E00E9492
:1008A000AB0B8BE992E00E94E70C8093B2016AE007
:1008B00070E080E090E00E94AB0B8BE992E00E9438
:1008C000E70C8093B1016AE070E080E090E00E9464
:1008D000AB0B8BE992E00E94E70C8093B0016AE0D9
:1008E00070E080E090E00E94AB0B8BE992E00E9408
:1008F000E70C8093AF016AE070E080E090E00E9436
:10090000AB0B8BE992E00E94E70C8093AE016AE0AA
:1009100070E080E090E00E94AB0B8BE992E00E94D7
:10092000E70C8093AD016AE070E080E090E00E9407
:10093000AB0B8BE992E00E94E70C8093AC016AE07C
:1009400070E080E090E00E94AB0B8BE992E00E94A7
:10095000E70C8093AB016AE070E080E090E00E94D9
:10096000AB0B8BE992E00E94E70C8093AA016AE04E
:1009700070E080E090E00E94AB0B8BE992E00E9477
:10098000E70C8093A9016AE070E080E090E00E94AB
:10099000AB0B8BE992E00E94E70C8093A8016AE020
:1009A00070E080E090E00E94AB0B8091B301803159
:1009B00009F082C08091B201823849F0833809F48D
:1009C0004DC0803809F05AC069E171E053C0809190
:1009D000B10190E09093B7018093B6018091B0018E
:1009E00090E0982F88272091AF01820F911D880FEA
:1009F000991F9093B9018093B8018091AE0190E066
:100A00009093BD018093BC018091AD0190E0982F3F
:100A100088272091AC01820F911D880F991F909318
:100A2000BF018093BE018091AB0190E09093C30120
:100A30008093C2018091AA0190E0982F882720918D
:100A4000A901820F911D880F991F9093C501809372
:100A5000C4010E9411016CE271E00CC00E948B0382
:100A600060E070E0CB010E94900281E00E940201F0
:100A70006EE371E08BE992E00E94040F1092B301E3
:100A80001092B2011092B1011092B0011092AF0118
:100A90001092AE011092AD011092AC011092AB0118
:100AA0001092AA011092A9011092A80164E571E0C8
:100AB0008BE992E00C94040F08950F931F93DC01CF
:100AC00012960C9110E009301105C0F5F801EC5CAC
:100AD000FF4F0C942B14DC01ED91FC910084F18507
:100AE000E02D29C0DC01ED91FC910284F385E02D1D
:100AF00022C0DC01ED91FC910484F585E02D1BC042
:100B0000DC01ED91FC910684F785E02D14C0DC0139
:100B1000ED91FC910088F189E02D0DC0DC01ED9193
:100B2000FC910288F389E02D06C0DC01ED91FC9177
:100B30000488F589E02D1F910F9109941F910F9161
:100B40000895CF93DF93EC01CB01BA0126E030E0AA
:100B500040E050E00E940C1462307105810591055F
:100B600059F18CF46115710581059105F1F0613041
:100B7000710581059105C1F5E881F9810480F58150
:100B8000E02D65E02DC0643071058105910511F1FE
:100B9000D4F0653071058105910531F5E881F98161
:100BA0000480F581E02D66E01BC0E881F9810480B6
:100BB000F581E02D64E014C0E881F9810480F581BD
:100BC000E02D61E00DC0E881F9810480F581E02D20
:100BD00063E006C0E881F9810480F581E02D62E0E0
:100BE000CE01DF91CF910994DF91CF910895CF93FA
:100BF000DF93477055276627772741505109DC015D
:100C0000CD91DC914730510528F4435C5F4FFA01E8
:100C10000C942B14EC81FD8161E01BC0EC81FD8103
:100C200065E017C0EC81FD8164E013C0EC81FD81BB
:100C300066E00FC0EC81FD8162E00BC0EC81FD81BC
:100C40006AE007C0EC81FD8168E003C0EC81FD81B2
:100C500069E0DF91CF910994AF92BF92DF92EF925A
:100C6000FF920F931F93CF93DF931F92CDB7DEB701
:100C70008C01FC018281843041F0883031F0833076
:100C800031F0863021F022E003C024E001C023E0EF
:100C9000A12CB12CE62EF12CDD24D394F801EA0D21
:100CA000FB1DC7010A2C02C0959587950A94E2F7AF
:100CB000678180FD6D25838129830E94980CFFEF59
:100CC000AF1ABF0A2981A21648F30F90DF91CF9186
:100CD0001F910F91FF90EF90DF90BF90AF9008951C
:100CE0000F931F93CF93DF93EC01E881F981048088
:100CF000F581E02D8C010D5B1F4FD8018C9188236D
:100D000011F062E001C060E0CE010995E881F9814F
:100D10000480F581E02DD8018C91882311F063E0E7
:100D200001C061E0CE0109958BA59CA50E94D30B63
:100D3000E881F9810480F581E02DD8018C91882328
:100D400011F062E001C060E0CE01DF91CF911F9110
:100D50000F910994CF93DF93EC0120E030E0A901DB
:100D60006B897C898D899E890E94F11218161CF46A
:100D7000EFA5F8A902C0E9A9FAA9DF91CF910994DA
:100D80004370552766277727DC01ED91FC9104809D
:100D9000F581E02D423051056105710571F0433058
:100DA00051056105710559F0413051056105710525
:100DB00011F062E005C063E003C061E001C060E0E3
:100DC0000994CF93DF93EC01CB01BA0123E030E02B
:100DD00040E050E00E940C146130710581059105DE
:100DE00081F0623071058105910591F0672B682BC8
:100DF000692BC1F4E881F9810480F581E02D64E07C
:100E00000DC0E881F9810480F581E02D61E006C024
:100E1000E881F9810480F581E02D62E0CE01DF9167
:100E2000CF910994DF91CF9108954370552766279C
:100E30007727DC01ED91FC910480F581E02D4230B3
:100E400051056105710571F043305105610571056A
:100E500059F0413051056105710511F065E005C09B
:100E600066E003C06AE001C069E00994CF93DF93B4
:100E7000EC018A818823A1F0E881F9810480F58161
:100E8000E02D60E0CE0109958EA58F3F49F061E02D
:100E90000E945F0C6DA58EA5DF91CF910C94980CEC
:100EA000DF91CF910895CF93DF93EC018A8188235E
:100EB00051F161E08B810E945F0C61E08C810E94A6
:100EC0005F0C8A81843011F0883039F461E08D81C3
:100ED0000E945F0C61E08E8106C0833011F0863085
:100EE00021F461E08D810E945F0C8EA58F3F59F047
:100EF00061E00E945F0C6DA581E068278EA5DF91FF
:100F0000CF910C94980CDF91CF910895CF92DF92FE
:100F1000EF92FF920F931F93CF93DF93EC014BA1BE
:100F20005CA16DA17EA1452B462B472B09F44DC03A
:100F30000E94880B6B017C010FA118A529A53AA579
:100F40004BA15CA16DA17EA1400F511F621F731FB9
:100F5000401751076207730730F0C416D506E6063E
:100F6000F70658F405C0C416D506E606F70668F17C
:100F7000C016D106E206F30640F5FE01ED5BFF4F19
:100F800080814B855C856D857E85882329F04F5F48
:100F90005F4F6F4F7F4F04C0415051096109710984
:100FA0004B875C876D877E87E881F9814B855C85FF
:100FB0006D857E850680F781E02DCE010995CFA253
:100FC000D8A6E9A6FAA681E001C080E0DF91CF9122
:100FD0001F910F91FF90EF90DF90CF9008950F93A6
:100FE0001F93FC0167857089818992890385148527
:100FF00025853685601B710B820B930B1F910F911A
:101000000895FC0163857485858596850895FC01A6
:1010100043875487658776874787508B618B728BB0
:1010200013AA14AA15AA16AA13A214A215A216A2EC
:10103000138A148A158A168A08952F923F924F9226
:101040005F926F927F928F929F92AF92BF92CF9258
:10105000DF92EF92FF920F931F93CF93DF9300D015
:1010600000D0CDB7DEB71C01FC0187849088A18831
:10107000B28883859485A585B685881A990AAA0AB7
:10108000BB0A63897489858996899B01AC010E949A
:10109000F5126B017C01F101638D748D858D968D48
:1010A0009B01AC010E943E119B01AC01C701B6013E
:1010B0000E94A6110E940E1281149104A104B10491
:1010C000A1F462307105810591050CF07CC0F1013D
:1010D00013A214A215A216A2138A148A158A168ABC
:1010E00013AA14AA15AA16AA03C1F10103A914A9E7
:1010F00025A936A9ED5BFF4F181419041A041B0427
:10110000FCF410161106120613064CF46815790546
:101110008A059B054CF52081211155C025C001157C
:1011200011052105310509F44EC0681579058A05B8
:101130009B050CF048C08081882309F444C037C067
:101140001016110612061306F4F400271127980151
:10115000081919092A093B096017710782079307C3
:101160001CF42081222379F19B01AC018827992767
:10117000DC01821B930BA40BB50BF10183AB94AB89
:10118000A5ABB6AB20C00115110521053105D9F07D
:10119000CC24DD247601C818D908EA08FB086C15B0
:1011A0007D058E059F057CF4808181110CC03095F2
:1011B0002095109501951F4F2F4F3F4FF10103AB25
:1011C00014AB25AB36ABF101C3A8D4A8E5A8F6A8AB
:1011D00081010D5B1F4FC114D104E104F10491F4AE
:1011E00087A990ADA1ADB2AD83AF94AFA5AFB6AFB7
:1011F00081E0181419041A041B040CF080E0F801B3
:10120000808340C0F10183AC94ACA5ACB6ACA50121
:101210009401C501B4010E943E112B013C01C7019C
:10122000B6010E94411220E030E040E850E40E9404
:10123000F51220E030E040E85FE30E943E119B01A0
:10124000AC01C301B2010E94A6119B01AC01C50112
:10125000B4010E943D112B013C01F101FF968080F9
:101260009180A280B3809401A5010E94F11218160A
:1012700014F442015301C401D501F10183AF94AFCD
:10128000A5AFB6AFFFEFCF1ADF0AEF0AFF0AF101F1
:10129000C3AAD4AAE5AAF6AA23AD34AD45AD56AD8E
:1012A000CA01B90129833A834B835C830E941312DC
:1012B000F10163A374A385A396A329813A814B818D
:1012C0005C8160E074E284E799E40E94A611F10178
:1012D000638B748B858B968BF8012081211108C05C
:1012E000DC01CB01B058F101838B948BA58BB68BBD
:1012F0000F900F900F900F90DF91CF911F910F9152
:10130000FF90EF90DF90CF90BF90AF909F908F9025
:101310007F906F905F904F903F902F9008950F9324
:101320001F93FC010785108921893289041715074D
:101330002607370741F04787508B618B728B1F91CF
:101340000F910C941D081F910F9108954F925F9279
:101350006F927F928F929F92AF92BF92CF92DF92C5
:10136000EF92FF92CF93DF93EC016A017B018B8CAC
:101370009C8CAD8CBE8C9A01AB01C501B4010E945E
:10138000A211882309F449C06BA97CA98DA99EA943
:101390000E9441122B013C01A7019601C501B40135
:1013A0000E94A6119B01AC01C301B2010E94F5127B
:1013B0000E940E126BAB7CAB8DAB9EABA70196016E
:1013C00060E070E080E090E40E94A6110E947C132F
:1013D00026E53EE04DE25FE30E94F51220E034E2B4
:1013E00044E759E40E94F5126FAB78AF89AF9AAF2A
:1013F000CB8EDC8EED8EFE8ECE01DF91CF91FF90F5
:10140000EF90DF90CF90BF90AF909F908F907F90A4
:101410006F905F904F900C941D08DF91CF91FF90DB
:10142000EF90DF90CF90BF90AF909F908F907F9084
:101430006F905F904F9008950F931F93CF93DF931A
:10144000EC010E948607882319F0CE010E941D0836
:1014500020E030E0A9016B897C898D899E890E94FA
:10146000A211811110C081E00F85188929893A895C
:101470004B855C856D857E85041715072607370724
:1014800019F480E001C081E0DF91CF911F910F91AD
:1014900008958F929F92AF92BF92CF92EF920F9347
:1014A000CF93DF93EC018DE691E0998388836A8383
:1014B0001B861C861D861E861F86188A198A1A8A14
:1014C0001B8A1C8A1D8A1E8A812C912C80E8A82EDA
:1014D0008FE3B82E8F8A988EA98EBA8E1B8E1C8EA3
:1014E0001D8E1E8E8F8E98A2A9A2BAA21BA21CA22C
:1014F0001DA21EA281E090E09CA78BA78FEF8EA774
:101500001FA218A619A61AA64B832C830D83EE8260
:101510001BAA1CAA1DAA1EAA1FAA18AE19AE1AAE93
:101520001BAE1CAE1DAE1EAEFE01FF9680829182E8
:10153000A282B382349610821F82188619861A8678
:10154000CC2019F0CE010E94530740E050E060E843
:101550007FE3CE01DF91CF910F91EF90CF90BF90BD
:10156000AF909F908F900C94A609CF92DF92EF924C
:10157000FF920F931F93CF93DF93EC016A017B01DE
:101580009A01AB016F89788D898D9A8D0E94A21185
:10159000882309F446C0CF8AD88EE98EFA8E8E0150
:1015A000015C1F4FA701960160E074E284E799E4B3
:1015B0000E94A611F80160837183828393838BA9B3
:1015C0009CA9ADA9BEA9181619061A061B064CF54A
:1015D0006B897C898D899E899B01AC010E94F512E3
:1015E0006B017C016B8D7C8D8D8D9E8D9B01AC0183
:1015F0000E943E119B01AC01C701B6010E94A611D9
:101600000E940E126BAB7CAB8DAB9EABCE01DF911B
:10161000CF911F910F91FF90EF90DF90CF900C949E
:101620001D08DF91CF911F910F91FF90EF90DF90F8
:10163000CF900895CF92DF92EF92FF92CF93DF93F6
:10164000EC016A017B0120E030E0A901C701B6018D
:101650000E94A211882359F0B701A601CE01DF91A3
:10166000CF91FF90EF90DF90CF900C94A609DF917F
:10167000CF91FF90EF90DF90CF9008951F920F923F
:101680000FB60F9211242F933F938F939F93AF9395
:10169000BF938091930290919402A0919502B09192
:1016A00096023091920223E0230F2D3720F4019609
:1016B000A11DB11D05C026E8230F0296A11DB11D75
:1016C000209392028093930290939402A0939502A8
:1016D000B09396028091970290919802A0919902FE
:1016E000B0919A020196A11DB11D8093970290932B
:1016F0009802A0939902B0939A02BF91AF919F91E3
:101700008F913F912F910F900FBE0F901F901895C2
:101710003FB7F8948091970290919802A091990216
:10172000B0919A0226B5A89B05C02F3F19F00196EB
:10173000A11DB11D3FBF6627782F892F9A2F620FF9
:10174000711D811D911D42E0660F771F881F991F33
:101750004A95D1F70895CF92DF92EF92FF92CF93FF
:10176000DF936B017C010E94880BEB01C114D10453
:10177000E104F10489F00E943C110E94880B6C1B6B
:101780007D0B683E734090F381E0C81AD108E108F0
:10179000F108C851DC4FEACFDF91CF91FF90EF9075
:1017A000DF90CF9008958230910538F0880F991F0F
:1017B000880F991F05970197F1F70895789484B5DC
:1017C000826084BD84B5816084BD85B5826085BD3D
:1017D00085B5816085BDEEE6F0E080818160808323
:1017E000E1E8F0E010828081826080838081816006
:1017F0008083E0E8F0E0808181608083E1EBF0E0CD
:10180000808184608083E0EBF0E080818160808370
:10181000EAE7F0E080818460808380818260808359
:101820008081816080838081806880831092C10084
:1018300008958E3008F08E5087702091060190E454
:10184000299F90011124822B80937C0080917A0043
:10185000806480937A0080917A0086FDFCCF80912D
:1018600078002091790090E0922B0895833081F0E8
:1018700028F4813099F08230A1F008958730A9F0E2
:101880008830B9F08430D1F4809180008F7D03C01E
:10189000809180008F7780938000089584B58F7742
:1018A00002C084B58F7D84BD08958091B0008F778C
:1018B00003C08091B0008F7D8093B0000895CF93D6
:1018C000DF9390E0FC01E456FF4F2491FC01E055CA
:1018D000FF4F8491882349F190E0880F991FFC0104
:1018E000E253FF4FA591B4918C539F4FFC01C591DA
:1018F000D4919FB7611108C0F8948C9120958223F0
:101900008C93888182230AC0623051F4F8948C91C0
:10191000322F309583238C938881822B888304C057
:10192000F8948C91822B8C939FBFDF91CF91089577
:101930000F931F93CF93DF931F92CDB7DEB7282F5E
:1019400030E0F901E857FF4F8491F901E456FF4F69
:101950001491F901E055FF4F04910023C9F0882349
:1019600021F069830E94360C6981E02FF0E0EE0FD0
:10197000FF1FEC53FF4FA591B4919FB7F8948C9142
:10198000611103C01095812301C0812B8C939FBFEF
:101990000F90DF91CF911F910F910895FC01818DE0
:1019A000228D90E0805C9F4F821B91098F73992755
:1019B0000895FC01918D828D981731F0828DE80F8A
:1019C000F11D858D90E008958FEF9FEF0895FC0144
:1019D000918D828D981761F0828DDF01A80FB11D66
:1019E0005D968C91928D9F5F9F73928F90E008958A
:1019F0008FEF9FEF08958BE69EE0892B49F080E002
:101A000090E0892B29F00E946B0E81110C9400004C
:101A10000895FC01848DDF01A80FB11DA35ABF4FAB
:101A20002C91848D90E001968F739927848FA689DD
:101A3000B7892C93A089B1898C9180648C93938D04
:101A4000848D981306C00288F389E02D80818F7DF4
:101A500080830895CF93DF93EC01888D8823C9F0AC
:101A6000EA89FB89808185FD05C0A889B9898C91A7
:101A700086FD0FC00FB607FCF5CF808185FFF2CF42
:101A8000A889B9898C9185FFEDCFCE010E94090DFF
:101A9000E7CFDF91CF910895CF92DF92FF920F931E
:101AA0001F93CF93DF931F92CDB7DEB76C0181E018
:101AB000D60158968C9358975B969C915B975C9651
:101AC0008C915C97981307C05096ED91FC915197BB
:101AD000808185FD2EC0F601038D10E00F5F1F4F42
:101AE0000F731127F02EF601848DF81211C00FB676
:101AF00007FCF9CFD6015096ED91FC91519780816A
:101B000085FFF1CFC60169830E94090D6981EBCF82
:101B1000838DE80FF11DE35AFF4F6083D6015B967A
:101B20000C935B975296ED91FC9153978081806264
:101B30000CC0D6015696ED91FC9157976083509654
:101B4000ED91FC91519780818064808381E090E0E9
:101B50000F90DF91CF911F910F91FF90DF90CF9069
:101B60000895BF92CF92DF92EF92FF92CF93DF93CF
:101B7000EC016A017B01B22EE889F98982E0808359
:101B8000411581EE580761057105A1F060E079E02B
:101B90008DE390E0A70196010E94EA1321503109DC
:101BA000410951095695479537952795211580E1AB
:101BB000380798F0E889F989108260E874E88EE1C6
:101BC00090E0A70196010E94EA13215031094109D2
:101BD00051095695479537952795EC85FD853083B6
:101BE000EE85FF852083188EEC89FD89B082EA8915
:101BF000FB89808180618083EA89FB89808188609C
:101C00008083EA89FB89808180688083EA89FB89F7
:101C100080818F7D8083DF91CF91FF90EF90DF9067
:101C2000CF90BF9008951F920F920FB60F9211247C
:101C30002F938F939F93EF93FF93E091AB02F091DB
:101C4000AC028081E091B102F091B20282FD12C03B
:101C500090818091B4028F5F8F732091B5028217BB
:101C600051F0E091B402F0E0E556FD4F958F80937E
:101C7000B40201C08081FF91EF919F918F912F91CC
:101C80000F900FBE0F901F9018951F920F920FB6D6
:101C90000F9211242F933F934F935F936F937F93F2
:101CA0008F939F93AF93BF93EF93FF938BE992E052
:101CB0000E94090DFF91EF91BF91AF919F918F917C
:101CC0007F916F915F914F913F912F910F900FBE38
:101CD0000F901F9018958BE992E00E94CE0C21E0A6
:101CE000892B09F420E0822F089510929E02109211
:101CF0009D0288EE93E0A0E0B0E080939F02909375
:101D0000A002A093A102B093A20287E891E0909371
:101D10009C0280939B0285EC90E09093A8028093B4
:101D2000A70284EC90E09093AA028093A90280EC31
:101D300090E09093AC028093AB0281EC90E09093A2
:101D4000AE028093AD0282EC90E09093B00280935B
:101D5000AF0286EC90E09093B2028093B1021092B1
:101D6000B4021092B5021092B6021092B702089512
:101D7000CF92DF92EF92FF920F931F93CF93DF9357
:101D80007C016A01EB0100E010E00C151D0571F00B
:101D90006991D701ED91FC910190F081E02DC7018F
:101DA0000995892B19F00F5F1F4FEFCFC801DF9105
:101DB000CF911F910F91FF90EF90DF90CF900895FA
:101DC0006115710581F0DB010D900020E9F7AD018F
:101DD00041505109461B570BDC01ED91FC910280EB
:101DE000F381E02D099480E090E00895DC01ED910D
:101DF000FC91DB0114964D915C9115976D917C914E
:101E00000280F381E02D09940C94E00EDC01ED9149
:101E1000FC910190F081E02D099463E971E00C944C
:101E2000E00E0F931F93CF93DF93EC010E94F60E09
:101E30008C01CE010E940D0F800F911FDF91CF9179
:101E40001F910F9108950F931F93CF93DF93EC0190
:101E50000E94E00E8C01CE010E940D0F800F911F99
:101E6000DF91CF911F910F9108958F929F92AF9222
:101E7000BF92CF92DF92EF92FF920F931F93CF9377
:101E8000DF93CDB7DEB7A1970FB6F894DEBF0FBED4
:101E9000CDBF7C01C42EE52FCB01D22E19A221E0AB
:101EA0002D1510F02AE0D22E8E010F5D1F4F8D2CC4
:101EB000912CA12CB12C6C2D7E2FA50194010E9498
:101EC000EA138C2DD29E80191124015011098A30F9
:101ED00014F4805D01C0895CF8018083211531050F
:101EE0004105510521F0C22EE32FCA01E4CFB8010C
:101EF000C7010E94E00EA1960FB6F894DEBF0FBE98
:101F0000CDBFDF91CF911F910F91FF90EF90DF90A8
:101F1000CF90BF90AF909F908F900895CF92DF9217
:101F2000EF92FF920F931F93CF93DF93EC016A011F
:101F30007B012115310579F4E881F9810190F08167
:101F4000E02D642FDF91CF911F910F91FF90EF90C3
:101F5000DF90CF9009942A303105E9F477FF1AC059
:101F60006DE20E94060F8C0144275527BA014C19D7
:101F70005D096E097F092AE0CE010E94350F800FAE
:101F8000911FDF91CF911F910F91FF90EF90DF9004
:101F9000CF9008952AE0B701A601CE01DF91CF913D
:101FA0001F910F91FF90EF90DF90CF900C94350F21
:101FB0000F931F93CF93DF93EC019A01AB01662738
:101FC00057FD6095762F0E948E0F8C01CE010E94E6
:101FD0000D0F800F911FDF91CF911F910F910895E9
:101FE000FC01808191810C94C914CF93DF93EC01A3
:101FF00088819981009711F00E94C9141982188272
:102000001D821C821B821A82DF91CF9108950F934B
:102010001F93CF93DF93EC018B016F5F7F4F88811C
:1020200099810E945815009731F0998388831B830A
:102030000A8381E001C080E0DF91CF911F910F9171
:102040000895CF93DF93EC0188819981892B29F042
:102050008A819B818617970760F4CE010E94071042
:10206000882341F08C819D81892B19F4E881F981C5
:10207000108281E0DF91CF910895EF92FF920F934C
:102080001F93CF93DF93EC017B018A01BA010E9479
:102090002110811104C0CE010E94F50F07C01D83DD
:1020A0000C83B701888199810E942B16CE01DF91A4
:1020B000CF911F910F91FF90EF900895FC01118235
:1020C000108213821282158214826115710559F0F3
:1020D000FB0101900020E9F7AF0141505109461B77
:1020E000570B0C943D100895CF93DF93EC01FB0147
:1020F0008617970761F0608171816115710529F07C
:10210000448155810E943D1002C00E94F50FCE010E
:10211000DF91CF910895FC01118210821382128207
:10212000158214820C947410EF92FF920F931F93F8
:10213000CF93DF93EC017B010C811D81611571054B
:1021400011F480E016C04115510591F0040F151FE0
:10215000B8010E9421108823A1F3288139818C8144
:102160009D81B701820F931F0E942B161D830C8344
:1021700081E0DF91CF911F910F91FF90EF90089533
:10218000EF92FF920F931F93CF93DF93CDB7DEB7FC
:1021900028970FB6F894DEBF0FBECDBF7C01CB01F0
:1021A0004AE08E010F5F1F4FB8010E943216F801FE
:1021B00001900020E9F7AF0141505109401B510B3C
:1021C000B801C7010E94941028960FB6F894DEBF9C
:1021D0000FBECDBFDF91CF911F910F91FF90EF9078
:1021E0000895CF93DF93EC01FB0144815581608119
:1021F00071810E949410811103C0CE010E94F50FDD
:10220000CE01DF91CF910895CF93DF93EC0161155B
:10221000710569F0FB0101900020E9F7AF01415021
:102220005109461B570B0E949410811103C0CE0127
:102230000E94F50FCE01DF91CF910895CF93DF93E8
:10224000EC010E94C010811103C0CE010E94F50F65
:10225000CE01DF91CF91089508950E94DE0B0E9478
:102260002C110E949800CBEFDCE00E943E042097E6
:10227000E1F30E94FB0CF9CF08955058BB27AA2721
:102280000ED075C166D130F06BD120F031F49F3F94
:1022900011F41EF45BC10EF4E095E7FB51C1E92F88
:1022A00077D180F3BA17620773078407950718F090
:1022B00071F49EF58FC10EF4E0950B2EBA2FA02D70
:1022C0000B01B90190010C01CA01A0011124FF27E3
:1022D000591B99F0593F50F4503E68F11A16F040DE
:1022E000A22F232F342F4427585FF3CF46953795DD
:1022F0002795A795F0405395C9F77EF41F16BA0BA2
:10230000620B730B840BBAF09150A1F0FF0FBB1F4F
:10231000661F771F881FC2F70EC0BA0F621F731F98
:10232000841F48F4879577956795B795F7959E3FF5
:1023300008F0B3CF9395880F08F09927EE0F979583
:1023400087950895D9D008F481E008950CD00FC185
:1023500007D140F0FED030F021F45F3F19F0F0C01B
:10236000511139C1F3C014D198F39923C9F35523FE
:10237000B1F3951B550BBB27AA2762177307840778
:1023800038F09F5F5F4F220F331F441FAA1FA9F32E
:1023900033D00E2E3AF0E0E830D091505040E69520
:1023A000001CCAF729D0FE2F27D0660F771F881F81
:1023B000BB1F261737074807AB07B0E809F0BB0B70
:1023C000802DBF01FF2793585F4F2AF09E3F510594
:1023D00068F0B6C000C15F3FECF3983EDCF3869531
:1023E00077956795B795F7959F5FC9F7880F911D0A
:1023F0009695879597F90895E1E0660F771F881FF6
:10240000BB1F621773078407BA0720F0621B730BA8
:10241000840BBA0BEE1F88F7E095089504D06894FA
:10242000B111D9C00895BCD088F09F5790F0B92F52
:102430009927B751A0F0D1F0660F771F881F991F19
:102440001AF0BA95C9F712C0B13081F0C3D0B1E02B
:102450000895C0C0672F782F8827B85F39F0B93F3B
:10246000CCF3869577956795B395D9F73EF490951B
:102470008095709561957F4F8F4F9F4F0895E89499
:1024800009C097FB3EF490958095709561957F4FBC
:102490008F4F9F4F9923A9F0F92F96E9BB2793956A
:1024A000F695879577956795B795F111F8CFFAF47A
:1024B000BB0F11F460FF1BC06F5F7F4F8F4F9F4FAB
:1024C00016C0882311F096E911C0772321F09EE809
:1024D000872F762F05C0662371F096E8862F70E06F
:1024E00060E02AF09A95660F771F881FDAF7880F49
:1024F0009695879597F90895990F0008550FAA0B9F
:10250000E0E8FEEF16161706E807F907C0F0121606
:102510001306E407F50798F0621B730B840B950B09
:1025200039F40A2661F0232B242B252B21F408955E
:102530000A2609F4A140A6958FEF811D811D0895FB
:1025400097F99F6780E870E060E008959FEF80EC66
:10255000089500240A941616170618060906089509
:1025600000240A9412161306140605060895092E6F
:102570000394000C11F4882352F0BB0F40F4BF2BDE
:1025800011F460FF04C06F5F7F4F8F4F9F4F08951E
:1025900057FD9058440F551F59F05F3F71F0479514
:1025A000880F97FB991F61F09F3F79F087950895F9
:1025B000121613061406551FF2CF4695F1DF08C018
:1025C000161617061806991FF1CF86957105610535
:1025D00008940895E894BB2766277727CB0197F9DD
:1025E00008958ADF08F48FEF08950BD0C0CFB1DFD4
:1025F00028F0B6DF18F0952309F0A2CFA7CF112459
:10260000EACFC6DFA0F3959FD1F3950F50E0551F99
:10261000629FF001729FBB27F00DB11D639FAA2737
:10262000F00DB11DAA1F649F6627B00DA11D661F86
:10263000829F2227B00DA11D621F739FB00DA11DA7
:10264000621F839FA00D611D221F749F3327A00D61
:10265000611D231F849F600D211D822F762F6A2FFD
:1026600011249F5750408AF0E1F088234AF0EE0F82
:10267000FF1FBB1F661F771F881F91505040A9F78F
:102680009E3F510570F05CCFA6CF5F3FECF3983EC4
:10269000DCF3869577956795B795F795E7959F5FF6
:1026A000C1F7FE2B880F911D9695879597F9089590
:1026B00077DFE0F09E37D8F09639B8F49E3848F4CA
:1026C000672F782F8827985FF9CF8695779567953C
:1026D00093959539D0F3B62FB1706B0F711D811D95
:1026E00020F4879577956795939544C05EC073CF26
:1026F00011F40EF42BCF59C053DFD0F39923D9F343
:10270000CEF39F57550B87FF5ED00024A0E640EA2A
:10271000900180585695979528F4805C660F771F36
:10272000881F20F026173707480730F4621B730B09
:10273000840B202931294A2BA6951794079420252C
:1027400031254A2758F7660F771F881F20F0261774
:102750003707480730F4620B730B840B200D311DD3
:10276000411DA09581F7B901842F9158880F969546
:1027700087950895882371F4772321F09850872B4B
:10278000762F07C0662311F499270DC09051862B30
:1027900070E060E02AF09A95660F771F881FDAF7DD
:1027A000880F9695879597F908959F3F31F091503E
:1027B00020F4879577956795B795880F911D969525
:1027C000879597F9089591505040660F771F881F9D
:1027D000D2F70895A1E21A2EAA1BBB1BFD010DC062
:1027E000AA1FBB1FEE1FFF1FA217B307E407F507C1
:1027F00020F0A21BB30BE40BF50B661F771F881F9D
:10280000991F1A9469F760957095809590959B0132
:10281000AC01BD01CF010895052E97FB1EF4009475
:102820000E94231457FD07D00E94EA1307FC03D02F
:102830004EF40C94231450954095309521953F4FBC
:102840004F4F5F4F089590958095709561957F4F9C
:102850008F4F9F4F0895EE0FFF1F0590F491E02DCD
:102860000994CF93DF938230910510F482E090E0D9
:10287000E0913A03F0913B0320E030E0A0E0B0E0CB
:10288000309739F14081518148175907B8F04817FE
:10289000590771F482819381109729F013969C93C4
:1028A0008E9312972CC090933B0380933A0327C0DA
:1028B0002115310531F04217530718F0A901DB014A
:1028C00001C0EF019A01BD01DF010280F381E02D1B
:1028D000D7CF21153105F9F0281B390B24303105EC
:1028E00080F48A819B816115710521F0FB0193833E
:1028F000828304C090933B0380933A03FE01329697
:1029000044C0FE01E20FF31F8193919322503109DD
:10291000398328833AC02091380330913903232B1F
:1029200041F4209102013091030130933903209347
:10293000380320910001309101012115310541F446
:102940002DB73EB74091040150910501241B350B72
:10295000E0913803F0913903E217F307A0F42E1B3E
:102960003F0B2817390778F0AC014E5F5F4F2417F3
:10297000350748F04E0F5F1F5093390340933803DB
:102980008193919302C0E0E0F0E0CF01DF91CF911D
:102990000895CF93DF93009709F487C0FC01329725
:1029A00013821282C0913A03D0913B03209781F4A5
:1029B00020813181280F391F80913803909139038C
:1029C0008217930779F5F0933903E09338036DC0CC
:1029D000DE0120E030E0AE17BF0750F412964D91B3
:1029E0005C9113979D014115510509F1DA01F3CF6F
:1029F000B383A28340815181840F951F8A179B075F
:102A000071F48D919C911197840F951F029691837B
:102A1000808312968D919C911397938382832115C5
:102A2000310529F4F0933B03E0933A033EC0D9010A
:102A30001396FC93EE9312974D915D91A40FB51FE1
:102A4000EA17FB0779F480819181840F951F029624
:102A5000D90111969C938E938281938113969C93B6
:102A60008E931297E0E0F0E08A819B81009719F045
:102A7000FE01EC01F9CFCE01029628813981820F47
:102A8000931F20913803309139032817390769F4CF
:102A9000309729F410923B0310923A0302C013823C
:102AA0001282D0933903C0933803DF91CF910895F8
:102AB000A0E0B0E0EEE5F5E10C946B16EC01CB0183
:102AC000209719F40E943114B8C0FE01E60FF71FD9
:102AD0009E0122503109E217F30708F4ACC0D90176
:102AE0000D911C91119706171707B8F005301105C5
:102AF00008F49FC0A801445051094617570708F42D
:102B000098C002501109061B170B019311936D9386
:102B10007C93CF010E94C9148CC05B01A01AB10A3A
:102B20004E01800E911EA0913A03B0913B03612C9F
:102B3000712C60E070E0109709F449C0A815B90540
:102B4000C9F5ED90FC901197670142E0C40ED11CCD
:102B5000CA14DB0478F147018A189B08640142E03B
:102B6000C40ED11C1296BC9012971396AC91B5E08E
:102B7000CB16D10440F0B282A38391828082D90126
:102B80008D939C9309C00E5F1F4F0E0D1F1DF90101
:102B900011830083EB2DFA2F6115710531F0DB01F4
:102BA0001396FC93EE93129744C0F0933B03E0938B
:102BB0003A033FC06D917C9111976616770608F431
:102BC0003B01BD0112960D90BC91A02DB4CF609138
:102BD00038037091390368157905E9F468167906A8
:102BE000D0F440910001509101014115510541F48B
:102BF0004DB75EB76091040170910501461B570BFC
:102C0000E417F507C0F4F0933903E0933803F901B2
:102C1000918380830EC00E9431147C01009759F08B
:102C2000A801BE010E942216CE010E94C914C7014C
:102C300004C0CE0102C080E090E0CDB7DEB7EEE088
:102C40000C948716FB01DC0102C001900D924150EB
:102C50005040D8F70895FB01DC0101900D9200204F
:102C6000E1F70895BB274A3031F4992322F4BDE2FD
:102C7000909581959F4F0C943E16BB27FB015527DD
:102C8000AA27880F991FAA1FA41710F0A41B8395C9
:102C90005051B9F7A05DAA3308F0A95DA193009740
:102CA00079F7B111B1931192CB010C945716DC0155
:102CB000FC01672F71917723E1F7329704C07C9173
:102CC0006D9370836291AE17BF07C8F308952F927A
:102CD0003F924F925F926F927F928F929F92AF92AC
:102CE000BF92CF92DF92EF92FF920F931F93CF93F9
:102CF000DF93CDB7DEB7CA1BDB0B0FB6F894DEBF90
:102D00000FBECDBF09942A88398848885F846E84B5
:102D10007D848C849B84AA84B984C884DF80EE80FF
:102D2000FD800C811B81AA81B981CE0FD11D0FB608
:102D3000F894DEBF0FBECDBFED010895F894FFCF2C
:102D400000003C038000015374617475733A0028DD
:102D500000290066616C73650048454C4C4F204665
:102D6000524F4D2041524455494E4F00446F6E65BD
:102D7000206D6F76652073746570706572004361B5
:102D80006C6962726174696F6E20636F6D706C65DF
:102D9000746564002D2D524541445920544F2052F2
:102DA0004543454956452D2D000000000036075388
:102DB000072C065D05AA067006C006E1061507A1E8
:102DC00005F705000000004C0DB80ECE0CE70CD93D
:102DD0000C2A0D0D0A006E616E00696E66006F763A
:042DE00066002E005B
:00000001FF
